:100000000C94DF000C9407010C9407010C94070179
:100010000C9407010C9407010C9407010C94070140
:100020000C9407010C9407010C9407010C94070130
:100030000C9407010C9407010C9407010C94070120
:100040000C94FD050C9407010C94CB050C94A505AC
:100050000C9407010C9407010C9407010C94070100
:100060000C9407010C94070100407A10F35A00A089
:10007000724E18090010A5D4E80000E87648170071
:1000800000E40B54020000CA9A3B000000E1F505B1
:10009000000080969800000040420F000000A086FB
:1000A00001000000102700000000E803000000002D
:1000B0006400000000000A000000000001000000D1
:1000C00000002C76D888DC674F0823DFC1DFAE59EB
:1000D000E1B1B796E5E3E453C63AE651997696E87E
:1000E000E6C28426EB898C9B62ED407C6FFCEFBC02
:1000F0009C9F40F2BAA56FA5F490055A2AF75C932D
:100100006B6CF9676DC11BFCE0E40D47FEF520E662
:10011000B500D0ED902E0300943577050080841E45
:10012000080000204E0A000000C80C333333330FA0
:10013000986E12831141EF8D2114893BE65516CF3D
:10014000FEE6DB18D1844B381BF77C1D901DA4BB49
:10015000E424203284725E228100C9F124ECA1E5FE
:100160003D2700000000250028002B0000000008AB
:10017000000201000003040700000000000000006E
:1001800000000000240027002A00000000002300D7
:1001900026002900040404040404040402020202E8
:1001A000020203030303030301020408102040803A
:1001B000010204081020010204081020470611243F
:1001C0001FBECFEFD8E0DEBFCDBF22E0A0E3B1E09D
:1001D00001C01D92AF30B207E1F711E0A0E0B1E03D
:1001E000E0E3F0E202C005900D92A033B107D9F729
:1001F00010E0CFEDD0E004C02197FE010E941E0E5A
:10020000CE3DD107C9F70E94BB060C9416100C9482
:100210000000CF92DF92EF92FF92CF93DF93B091E5
:10022000DF01A0E08111AB2F8091E00190E0880F09
:10023000991FAC0146575E4FC090E501D090E60192
:10024000E090E701F090E80130E020E0FA01C5918C
:10025000D491E881B90190E080E0EB23EA130AC071
:100260002F5F3F4F6C157D058E059F0578F36FEF6F
:100270007FEFCB01DF91CF91FF90EF90DF90CF9098
:100280000895AF92BF92CF92DF92EF92FF920F93B9
:100290001F93CF93DF936C017B018B01040F151F1C
:1002A000EB015E01AE18BF08C017D10759F0699184
:1002B000D601ED91FC910190F081E02DC6010995E8
:1002C000892B79F7C501DF91CF911F910F91FF9095
:1002D000EF90DF90CF90BF90AF900895FC01538DC9
:1002E000448D252F30E0842F90E0821B930B541710
:1002F00010F0CF96089501970895FC01918D828D9D
:10030000981761F0A28DAE0FBF2FB11D5D968C9135
:10031000928D9F5F9F73928F90E008958FEF9FEF74
:100320000895FC01918D828D981731F0828DE80F30
:10033000F11D858D90E008958FEF9FEF0895FC01EA
:10034000918D228D892F90E0805C9F4F821B9109B7
:100350008F73992708958AE391E00E949F0121E01D
:10036000892B09F420E0822F089580E090E0892B0A
:1003700029F00E94AB0181110C9400000895FC014A
:10038000A48DA80FB92FB11DA35ABF4F2C91848DF6
:1003900090E001968F739927848FA689B7892C9353
:1003A000A089B1898C91837080648C93938D848DA6
:1003B000981306C00288F389E02D80818F7D8083A9
:1003C0000895EF92FF920F931F93CF93DF93EC0169
:1003D00081E0888F9B8D8C8D98131AC0E889F989EC
:1003E000808185FF15C09FB7F894EE89FF896083EF
:1003F000E889F98980818370806480839FBF81E070
:1004000090E0DF91CF911F910F91FF90EF900895B1
:10041000F62E0B8D10E00F5F1F4F0F731127E02E8C
:100420008C8D8E110CC00FB607FCFACFE889F989C4
:10043000808185FFF5CFCE010E94BF01F1CFEB8D0A
:10044000EC0FFD2FF11DE35AFF4FF0829FB7F89498
:100450000B8FEA89FB8980818062CFCFCF93DF93B6
:10046000EC01888D8823B9F0AA89BB89E889F989CC
:100470008C9185FD03C0808186FD0DC00FB607FC01
:10048000F7CF8C9185FFF2CF808185FFEDCFCE0134
:100490000E94BF01E9CFDF91CF91089590E0FC0168
:1004A000E459FE4F2491FC01E855FE4F3491FC01C4
:1004B000EC56FE4FE491EE23C9F0222339F02330AD
:1004C00001F1A8F4213019F1223029F1F0E0EE0F0A
:1004D000FF1FEE59FE4FA591B4918FB7F894EC91A0
:1004E000611126C030953E233C938FBF089527307D
:1004F000A9F02830C9F0243049F7809180008F7D21
:1005000003C0809180008F7780938000DFCF84B517
:100510008F7784BDDBCF84B58F7DFBCF8091B0001A
:100520008F778093B000D2CF8091B0008F7DF9CFCC
:100530003E2BDACF682F8091EF010E944E0280910E
:100540000702909108028230910538F0880F991FB8
:10055000880F991F05970197F1F7089581E00C9492
:100560009A02CF93DF9390E0FC01E855FE4F24916F
:100570008C569E4FFC0184918823D1F090E0880F27
:10058000991FFC01E058FE4FA591B491FC01EE5972
:10059000FE4FC591D491623071F49FB7F8943C91AD
:1005A000822F809583238C93E8812E2B28839FBFF5
:1005B000DF91CF9108958FB7F894EC912E2B2C9367
:1005C0008FBFF6CF3FB7F8948091310190913201FF
:1005D000A0913301B091340126B5A89B05C02F3FEF
:1005E00019F00196A11DB11D3FBFBA2FA92F982F59
:1005F0008827BC01CD01620F711D811D911D42E054
:10060000660F771F881F991F4A95D1F708958F921B
:100610009F92AF92BF92CF92DF92EF92FF924B01E7
:100620005C010E94E2026B017C010E94E2026C19F3
:100630007D098E099F09683E734081059105A8F3E5
:1006400021E0821A9108A108B10888EEC80E83E063
:10065000D81EE11CF11C81149104A104B10429F7F6
:10066000FF90EF90DF90CF90BF90AF909F908F90D2
:100670000895CF92DF92EF92FF920F931F93CF9343
:10068000DF93CDB7DEB7C054D1400FB6F894DEBFCC
:100690000FBECDBF2FB7F8948091360190913701EE
:1006A000A0913801B09139012FBF4091E1015091E3
:1006B000E2016091E3017091E4018C019D01041B52
:1006C000150B260B370BB901A801403D57406105BA
:1006D000710590F48091E901C05CDE4F0FB6F8948B
:1006E000DEBF0FBECDBFDF91CF911F910F91FF9065
:1006F000EF90DF90CF9008958093E1019093E20115
:10070000A093E301B093E4011092DC011092DB01AD
:100710001092DA011092D9011092D80162E0809112
:10072000DD010E94B10261E070E080E090E00E9493
:10073000070361E08091DD010E94B10260E08091D9
:10074000DD010E944E028091DE018551823020F54C
:100750008BE291E10197F1F762E08091DD010E9467
:10076000B1028091EA0190E08230910538F0880F63
:10077000991F880F991F05970197F1F7F89480E06A
:100780000E9409016F3F7F4F8F4F9F4F61F410927E
:10079000E901789480E0A0CF64E170E080E090E02F
:1007A0000E940703D9CF81E00E9409016F3F7F4F6C
:1007B0008F4F9F4F61F38E010F5F1F4F6E018FEBC5
:1007C000C81A8EEFD80A780180E00E940901F7016B
:1007D000608371838283938381E00E940901F70122
:1007E0006483758386839783F8E0EF0EF11CEC1425
:1007F000FD0451F7789430E020E0F801C080D1800A
:10080000E280F3804481558166817781FFEFCF16C6
:10081000DF06EF06FF0631F04F3F8FEF58076807FE
:10082000780719F41092E901B5CFF90183E0F59545
:10083000E7958A95E1F7E852FE4F8081880FC4164C
:10084000D506E606F70610F180832F5F3F4F085F5D
:100850001F4F2832310589F64091DC012091D801E3
:100860008091D901280F3327331F8091DA01280F97
:10087000311D8091DB01820F932F911D992748171D
:10088000190681F681E08093E90126CF8160DCCFF3
:100890008EBD00000DB407FEFDCF8EB508950F93F9
:1008A0001F930091F1011091F2012091F301309119
:1008B000F40140E052E16AE770E080E004171507B8
:1008C0002607370740F476956795579547958F5FCC
:1008D0008630A1F787E0982F906A96958095817071
:1008E0009CBD8DBD80E01F910F910C949A020F93D7
:1008F0001F93CF93182FC62F0E944F04812F806221
:100900000E9448048093F50106E011E0C15030F0E8
:10091000F80181918F010E944804F8CFCF911F9177
:100920000F910C94AE02CF93C82F0E944F048C2FCE
:1009300080620E9448048093F501CF910C94AE022E
:10094000CF93C82F0E944F048C2F0E94480480939D
:10095000F5018FEF0E944804C82F0E94AE028C2F31
:10096000CF9108950E944F0480E50E94480480932F
:10097000F50183E70E9448040C94AE02CF93DF9305
:10098000D82FC62F0E944F048D2F80620E944804EA
:100990008093F5018C2F0E944804DF91CF910C9435
:1009A000AE02CF93DF93EC0188819981009711F01B
:1009B0000E94C00E198218821D821C821B821A821C
:1009C000DF91CF910895FC0180819181009711F012
:1009D0000C94C00E08950F931F93CF93DF93EC01F7
:1009E00088819981009759F02A813B812617370722
:1009F00030F081E0DF91CF911F910F9108958B012D
:100A00006F5F7F4F0E94490F009759F09983888349
:100A10001B830A832C813D81232B59F7FC01108213
:100A2000E8CF80E0E7CFEF92FF920F931F93CF9331
:100A3000DF93EC01FB01E080F180E114F10411F19E
:100A40000481158101151105A9F08C819D81080F84
:100A5000191FB801CE010E94EB04882399F0288168
:100A600039818C819D81B701820F931F0E940F10E5
:100A70001D830C83CE01DF91CF911F910F91FF90C9
:100A8000EF900895CE010E94D104F4CFEF92FF922F
:100A90000F931F93CF93DF93EC017B018A01BA017F
:100AA0000E94EB0481110BC0CE010E94D104CE0143
:100AB000DF91CF911F910F91FF90EF9008951D83CB
:100AC0000C83B701888199810E940F10F0CFEF92BB
:100AD000FF920F931F93CF93DF93CDB7DEB7A1970C
:100AE0000FB6F894DEBF0FBECDBF7C01CB01BA01BB
:100AF000F7011182108213821282158214828E01F4
:100B00000F5F1F4F21E043E00E942A0A0097C9F0BF
:100B1000FC0101900020E9F73197AF01481B590B08
:100B2000BC01C7010E944605A1960FB6F894DEBF2E
:100B30000FBECDBFDF91CF911F910F91FF90EF902E
:100B40000895C7010E94D104EFCF1F920F920FB6F4
:100B50000F9211242F933F934F935F936F937F9343
:100B60008F939F93AF93BF93EF93FF938AE391E0AB
:100B70000E94BF01FF91EF91BF91AF919F918F9123
:100B80007F916F915F914F913F912F910F900FBE89
:100B90000F901F9018951F920F920FB60F9211246D
:100BA0002F938F939F93EF93FF93E0914A01F091DE
:100BB0004B018081E0915001F091510182FD1BC0F9
:100BC0009081809153018F5F8F7320915401821720
:100BD00041F0E0915301F0E0E65CFE4F958F809389
:100BE0005301FF91EF919F918F912F910F900FBE25
:100BF0000F901F9018958081F4CF1F920F920FB61F
:100C00000F9211242F933F938F939F93AF93BF9392
:100C10008091360190913701A0913801B09139014E
:100C20003091300123E0230F2D3758F50196A11D97
:100C3000B11D209330018093360190933701A0932A
:100C40003801B09339018091310190913201A09126
:100C50003301B09134010196A11DB11D8093310182
:100C600090933201A0933301B0933401BF91AF91BF
:100C70009F918F913F912F910F900FBE0F901F90DA
:100C8000189526E8230F0296A11DB11DD2CFEAE3E5
:100C9000F1E01382128288EE93E0A0E0B0E084835A
:100CA0009583A683B78380E191E09183808385EC6F
:100CB00090E09587848784EC90E09787868780EC26
:100CC00090E0918B808B81EC90E0938B828B82EC17
:100CD00090E0958B848B86EC90E0978B868B118EC1
:100CE000128E138E148EEBEEF1E087E090E093838A
:100CF000828388E090E09583848380E896E9A8E980
:100D0000B0E086839783A087B18780E28387128AC9
:100D1000138A85E0858B81E0868B85E090E0A0E0FA
:100D2000B0E0848F958FA68FB78F87ED91E0918388
:100D300080831486A8EDB1E083E015968C93159717
:100D40008BE016968C931697EBEAF1E0E4911796F8
:100D5000EC931797E7E9F1E0E4911896EC93189774
:100D600040E85EE360E070E01D964D935D936D9307
:100D70007C9350970895CF93DF93CDB7DEB76897F4
:100D80000FB6F894DEBF0FBECDBF789484B58260F5
:100D900084BD84B5816084BD85B5826085BD85B51F
:100DA000816085BD80916E00816080936E0010929D
:100DB0008100809181008260809381008091810018
:100DC00081608093810080918000816080938000A9
:100DD0008091B10084608093B1008091B000816007
:100DE0008093B00080917A00846080937A00809133
:100DF0007A00826080937A0080917A00816080938B
:100E00007A0080917A00806880937A001092C10005
:100E1000E0914A01F0914B0182E08083E09146012C
:100E2000F09147011082E0914801F09149018FEC67
:100E3000808310925201E0914E01F0914F0186E0C3
:100E40008083E0914C01F0914D018081806180832D
:100E5000E0914C01F0914D01808188608083E091A8
:100E60004C01F0914D01808180688083E0914C01BC
:100E7000F0914D0180818F7D80831FB7F894809120
:100E80003501811127C0EEE9F1E08491E2EBF1E058
:100E90009491E82FF0E0EE0FFF1FE058FE4FA59170
:100EA000B491EC91E92321F461E08AE00E944E02C2
:100EB00061E08AE00E94B1028CB580618CBD8CB586
:100EC00080648CBD61E08DE00E94B10261E08BE046
:100ED0000E94B102809135018F5F809335011FBF61
:100EE0008091ED019091EE018F3F980709F498C031
:100EF0002091EF013091F0012F3F320709F490C0AB
:100F00008217930741F061E00E94B10261E0809195
:100F1000EF010E94B1028091ED019091EE012091CC
:100F2000EF013091F0018217930719F060E00E9401
:100F30004E0281E00E949A0265E070E080E090E05D
:100F40000E9407036FE584E00E94BE0486E00E94D1
:100F5000A00445E550E060E070E040930302509348
:100F600004026093050270930602682F677D86E095
:100F70000E94BE0486E00E94A0048DE10E94A004AD
:100F8000182F0E94B2048DE10E94A00491E0181372
:100F900090E09093FD01882341F0181302C00E9455
:100FA000B20460E08DE10E94BE041092FF0160E097
:100FB0008CE10E94BE04109201026FE381E00E9466
:100FC000BE0463E082E00E94BE0480E28093F601EA
:100FD00011E16091F601812F0E94BE041F5F17315D
:100FE000C1F763E083E00E94BE0485E080930002C5
:100FF0006CE40E94BE0460E787E00E94BE0482EEBB
:101000000E94930481EE0E9493046CE080E00E94B1
:10101000BE0480E00E94A00481FF46C08093FC01D2
:10102000609100028AE00E9477046091000280E1F2
:101030000E94770462E08091DD010E94B1022FB727
:10104000F8948091360190913701A0913801B091C8
:1010500039012FBF805D9740A109B1098093E1015B
:101060009093E201A093E301B093E40187E38093BE
:10107000EA017E0183E1E80EF11C20E0C22E20E0AF
:10108000D22E0E943903882341F08091DE018C30FA
:1010900009F46CC0A8F48B3061F1812C912C80ECA8
:1010A000A82E8FE7B82E4FC0682F62606093FC01B6
:1010B00080E00E94BE048BE19EE40197F1F7B0CF7F
:1010C0008551823050F71091DA01612F70E0762F50
:1010D000662766277F778091DB01682B90E080E0B0
:1010E0000E947F0C2DEC3CEC4CEC5DE30E94BC0CB0
:1010F00059C06091DA0170E090E080E00E947F0CBE
:101100004B015C011091DB0117FF0AC0AC019B0190
:1011100060E070E080E89FEB0E94B10D4B015C0144
:101120001F70612F70E090E080E00E94810C2DEC38
:101130003CEC4CEC5DE30E94BC0CA50194010E94C8
:10114000B20D4B015C010E943903882351F080915C
:10115000DE018B3030F08D3070F18551823008F433
:10116000BAC060E070E080EC9FE741C01091DA0106
:10117000612F70E090E080E00E947F0C4B015C01E9
:101180006091DB016F7070E090E080E00E94810C64
:101190002DEC3CEC4CEC5DE30E94BC0CA5019401F1
:1011A0000E94B20D4B015C0117FFCDCFB7FAB0948E
:1011B000B7F8B094C8CF6091D90170E090E080E0BA
:1011C0000E94810C2DEC3CEC4CEC5DE30E94BC0CCD
:1011D0002B013C016091D80170E090E080E00E941A
:1011E000810C9B01AC01C301B2010E94B20DAB01A5
:1011F000BC01CE0101960E946705B501A401CE0194
:1012000007960E9467051E861D86188A1F861A8A01
:10121000198A42E050E06EE171E0CE010D960E9425
:101220004605BE01695F7F4FCE010D960E941305F2
:101230008C01FC01A480B580F3E0AF0EB11CB501B8
:101240000E94EB04811159C0C8010E94D104BE0163
:101250006F5F7F4FC8010E9413051C8A1B8A1E8A7C
:101260001D8A188E1F8A8E159F0559F0FC0160811A
:1012700071816115710529F044815581C7010E9472
:101280004605CE010D960E94E304CE0107960E940A
:10129000E304CE0101960E94E3041F891F5F8B883F
:1012A0009C8880910102811137C00091F6010117DD
:1012B00008F4102F011B0E944F0480EA0E9448048A
:1012C0008093F5015401115070F1F50181915F0196
:1012D0000E944804F8CF6091D8017091D901762717
:1012E0006727762790E080E00E947F0C2DEC3CEC95
:1012F0004CEC5DE30E94BC0C7ACFF8012081318177
:101300008481958161E271E0820F931F0E940F102A
:10131000F801B582A4829BCF01E0111100E01132E7
:1013200050F210E2C8CF015020F080E00E94480443
:10133000FACF0E94AE028091ED019091EE012091D2
:10134000EF013091F0018217930719F061E00E94DC
:101350004E028FB7F8948090360190903701A0909C
:101360003801B09039018FBF8FEF0E9493048091B4
:10137000F501807309F054C02FB7F89480913601BD
:1013800090913701A0913801B09139012FBF881990
:101390009909AA09BB0980369105A105B10520F379
:1013A00081E0809302021A8219821C821B821E82B3
:1013B0001D8246E050E065E271E0CE0101960E9498
:1013C0004605B701CE0101960E941305FC01448138
:1013D0005581608171818AE391E00E94410142E080
:1013E00050E06CE271E08AE391E00E944101CE019D
:1013F00001960E94E30468EE73E080E090E00E94B2
:101400000703C7010E94E304C114D10409F439CED3
:101410000E94AB01882309F434CE0E94000031CE33
:101420008091ED019091EE012091EF013091F0015A
:101430008217930719F060E00E944E0260E787E090
:101440000E94BE048091F50184FFADCF81EE0E9421
:101450009304A9CFEF920F931F93CF93DF93E801EB
:1014600034E047FD34E1042E000C550B57FF03C058
:10147000519541955109E32E022F242FAE010E9470
:10148000480ACE01DF91CF911F910F91EF900895FF
:10149000A9E0B0E0EEE4FAE00C94800D6A01F22ECF
:1014A000B02E102FFBE3AF2EA01608F41BE31F5F36
:1014B000012F27E0AE014F5F5F4F0E94A70BBC01D9
:1014C0008981982F9970913009F43FC09BE2E1FC2B
:1014D00004C09E2D9170E0FC3AC05E2D5071E82F43
:1014E000E87083FF46C084E0911101C083E0EF2DD6
:1014F000E81B8F1508F0E0E0D6018E2F20E255237F
:1015000051F1992329F0D6019C93C60101966C01F3
:1015100096012D5F3F4FE2FE24C08EE4D6018C93EE
:1015200091E411969C93119712968C93D9018E2F6A
:1015300090E281111BC0E20FF32FF11D10828EEF9C
:101540009FEF2996ECE00C949C0D9DE2C6CF90E2B3
:10155000C4CF2D9381508111FCCFCE0ED11CE0E081
:10156000D0CF8EE6D6018C9391E6DBCF9D93815050
:10157000E0CF482F447082FF3DC084E0911101C04C
:1015800083E08F1510F4EF2DE81BD6018E2F20E29B
:10159000552309F1992329F0D6019C93C6010196A0
:1015A0006C0196012D5F3F4FE2FE1BC089E4D6011E
:1015B0008C938EE411968C93119786E412968C93FB
:1015C000D9018E2F90E2882309F4B5CF9D938150E5
:1015D000FACF2D9381508111FCCFCE0ED11CE0E0CB
:1015E000D9CF89E6D6018C938EE611968C9311970C
:1015F00086E6E4CF9B0177FF02C030E020E0A1E067
:10160000B0E0911102C0B0E0A0E0F9013196AE0F58
:10161000BF1F8B2C912CBB2009F461C05401EFEF4C
:10162000AE1ABE0AAA0DBB1DFA161B0619F014F05D
:101630004F2D4A1B511188C0E3FC59C07601A42FDD
:10164000B0E2A1114FC0C40ED11C992309F45BC0B4
:1016500040E0D6011196F60190836D01552309F4FF
:1016600048C0012F060F9A81582F507184FF03C084
:10167000913309F4015010160CF047C0093008F0FE
:1016800008E0EEE2FE2E5B01A01AB10885019194FC
:10169000819491082F3F320729F4D601FC92F6017C
:1016A00031966F016217730794F1021713077CF5E7
:1016B000DB01A21BB30BAA24A394B12CAC0EBD1E5C
:1016C000AA0DBB1D11968C9121503109D60111969E
:1016D00028153905F4F0F60180836D01DBCFB12CBC
:1016E000A12CA0CFF701B1937F01A150AACF9111F6
:1016F000B0CFD601942F50E302C05D939150911169
:10170000FCCFC40ED11C40E0ACCF01E0BACF80E3E7
:10171000DBCF6217730731F4963388F4953311F4F5
:10172000552369F0F6018083FD01842F90E2811139
:1017300008C0A40FB11D1C9290E080E002CF81E3AD
:10174000F1CF91938150F3CF911183CF8ACF28307D
:1017500008F027E03327DA01990F311D87FD9160EA
:1017600000966105710539F432602E5F3D9330E3D8
:101770002A95E1F708959F3F30F0803871056105A3
:1017800009F03C5F3C5F3D93913008F08068911D0B
:10179000DF93CF931F930F93FF92EF92192F987FB0
:1017A0009695E92F96959695E90FFF27EE53FF4FF3
:1017B00099273327EE24FF24A701E7010590089419
:1017C000079428F4360FE71EF81E491F511D660FB7
:1017D000771F881F991F0694A1F70590079428F496
:1017E000E70EF81E491F561FC11D770F881F991F4E
:1017F000661F0694A1F70590079428F4F80E491F78
:10180000561FC71FD11D880F991F661F771F06948B
:10181000A1F70590079420F4490F561FC71FD81F42
:10182000990F661F771F881F0694A9F7849110955A
:10183000177041F0D695C79557954795F794E7945B
:101840001A95C1F7E8E6F0E0689415901591359186
:101850006591959105907FE27395E118F10A430B2C
:10186000560BC90BD009C0F7E10CF11E431F561FE0
:10187000C91FD01D7EF4703311F48A95E6CFE89429
:10188000015030F0080F0AF40027021708F4202F47
:101890002395022F7A3328F079E37D932A95E9F78F
:1018A00010C07D932A9589F606949795679537958C
:1018B00017951794E118F10A430B560BC90BD00981
:1018C00098F023957E9173957A3308F070E37C93BA
:1018D0002013B8F77E9170617D9330F0839571E3AA
:1018E0007D9370E32A95E1F71124EF90FF900F911B
:1018F0001F91CF91DF91992787FD90950895E894E6
:1019000009C097FB3EF490958095709561957F4F47
:101910008F4F9F4F9923A9F0F92F96E9BB279395F5
:10192000F695879577956795B795F111F8CFFAF405
:10193000BB0F11F460FF1BC06F5F7F4F8F4F9F4F36
:1019400016C0882311F096E911C0772321F09EE894
:10195000872F762F05C0662371F096E8862F70E0FA
:1019600060E02AF09A95660F771F881FDAF7880FD4
:101970009695879597F908950E94CF0C0C94400D89
:101980000E94320D38F00E94390D20F0952311F09D
:101990000C94290D0C942F0D11240C94740D0E949D
:1019A000510D70F3959FC1F3950F50E0551F629F45
:1019B000F001729FBB27F00DB11D639FAA27F00DA8
:1019C000B11DAA1F649F6627B00DA11D661F829FCF
:1019D0002227B00DA11D621F739FB00DA11D621FB4
:1019E000839FA00D611D221F749F3327A00D611DD1
:1019F000231F849F600D211D822F762F6A2F1124B3
:101A00009F5750409AF0F1F088234AF0EE0FFF1FE5
:101A1000BB1F661F771F881F91505040A9F79E3F3C
:101A2000510580F00C94290D0C94740D5F3FE4F384
:101A3000983ED4F3869577956795B795F795E79592
:101A40009F5FC1F7FE2B880F911D9695879597F99B
:101A5000089597F99F6780E870E060E008959FEF30
:101A600080EC089500240A94161617061806090635
:101A7000089500240A941216130614060506089504
:101A8000092E0394000C11F4882352F0BB0F40F48C
:101A9000BF2B11F460FF04C06F5F7F4F8F4F9F4FCC
:101AA000089557FD9058440F551F59F05F3F71F04E
:101AB0004795880F97FB991F61F09F3F79F08795B5
:101AC0000895121613061406551FF2CF4695F1DF3E
:101AD00008C0161617061806991FF1CF86957105CE
:101AE000610508940895E894BB2766277727CB0102
:101AF00097F908952F923F924F925F926F927F9243
:101B00008F929F92AF92BF92CF92DF92EF92FF920D
:101B10000F931F93CF93DF93CDB7DEB7CA1BDB0BB9
:101B20000FB6F894DEBF0FBECDBF09942A8839885E
:101B300048885F846E847D848C849B84AA84B98465
:101B4000C884DF80EE80FD800C811B81AA81B98171
:101B5000CE0FD11D0FB6F894DEBF0FBECDBFED0185
:101B600008955058BB27AA270E94C90D0C94400D18
:101B70000E94320D38F00E94390D20F039F49F3F59
:101B800019F426F40C942F0D0EF4E095E7FB0C9459
:101B9000290DE92F0E94510D58F3BA1762077307F8
:101BA0008407950720F079F4A6F50C94730D0EF4D4
:101BB000E0950B2EBA2FA02D0B01B90190010C015D
:101BC000CA01A0011124FF27591B99F0593F50F475
:101BD000503E68F11A16F040A22F232F342F4427CD
:101BE000585FF3CF469537952795A795F0405395C5
:101BF000C9F77EF41F16BA0B620B730B840BBAF095
:101C00009150A1F0FF0FBB1F661F771F881FC2F7FF
:101C10000EC0BA0F621F731F841F48F48795779513
:101C20006795B795F7959E3F08F0B0CF9395880FCD
:101C300008F09927EE0F979587950895EE0FFF1FEF
:101C40000590F491E02D09940F931F93CF93DF93A8
:101C50008230910510F482E090E0E0910D02F09165
:101C60000E0230E020E0B0E0A0E0309799F42115BA
:101C7000310509F44AC0281B390B24303105D8F549
:101C80008A819B816115710589F1FB0193838283B0
:101C9000FE0111C04081518102811381481759070B
:101CA000E0F04817590799F4109761F012960C93D9
:101CB000129713961C933296CF01DF91CF911F910B
:101CC0000F91089500930D0210930E02F4CF211589
:101CD000310551F04217530738F0A901DB019A0191
:101CE000BD01DF01F801C1CFEF01F9CF90930E02E2
:101CF00080930D02CDCFFE01E20FF31F81939193EC
:101D00002250310939832883D7CF20910B0230919B
:101D10000C02232B41F420910201309103013093F6
:101D20000C0220930B02209100013091010121153A
:101D3000310541F42DB73EB74091040150910501A2
:101D4000241B350BE0910B02F0910C02E217F30714
:101D5000A0F42E1B3F0B2817390778F0AC014E5F1B
:101D60005F4F2417350748F04E0F5F1F50930C024A
:101D700040930B02819391939FCFF0E0E0E09CCFE2
:101D8000CF93DF930097E9F0FC0132971382128220
:101D9000A0910D02B0910E02ED0130E020E010970D
:101DA000A1F420813181820F931F20910B02309189
:101DB0000C022817390709F061C0F0930C02E09378
:101DC0000B02DF91CF910895EA01CE17DF07E8F506
:101DD0004A815B819E0141155105B1F7E901FB8301
:101DE000EA8349915991C40FD51FEC17FD0761F49F
:101DF000808191810296840F951FE90199838883E0
:101E0000828193819B838A83F0E0E0E012968D913A
:101E10009C9113970097B9F52D913C911197CD01A5
:101E20000296820F931F20910B0230910C0228170B
:101E3000390739F6309751F510920E0210920D02C3
:101E4000B0930C02A0930B02BCCFD383C28340811A
:101E50005181840F951FC817D90761F44E5F5F4FFA
:101E600088819981480F591F518340838A819B81C2
:101E7000938382832115310509F0B0CFF0930E02D0
:101E8000E0930D029ECFFD01DC01C0CF13821282D0
:101E9000D7CFB0E0A0E0EFE4FFE00C947C0D8C0124
:101EA000009751F4CB010E94240E8C01C801CDB7DC
:101EB000DEB7E0E10C94980DFC01E60FF71F9C01E2
:101EC00022503109E217F30708F49DC0D901CD91E2
:101ED000DC911197C617D70798F0C530D10530F3BC
:101EE000CE0104978617970708F3C61BD70B2297D6
:101EF000C193D1936D937C93CF010E94C00ED6CF36
:101F00005B01AC1ABD0A4C018C0E9D1EA0910D0206
:101F1000B0910E02512C412CF12CE12C109731F58F
:101F200080910B0290910C028815990509F05CC014
:101F30004616570608F058C08091000190910101A3
:101F4000009741F48DB79EB740910401509105016F
:101F5000841B950BE817F90708F055C0F0930C02A5
:101F6000E0930B02F90171836083A0CF8D919C9166
:101F7000119712966C90129713967C901397A81550
:101F8000B90559F56C0142E0C40ED11CCA14DB043A
:101F900020F1AC014A195B09DA011296159780F01D
:101FA0006282738251834083D9016D937C93E114E3
:101FB000F10471F0D7011396FC93EE93129776CF4C
:101FC00022968C0F9D1FF90191838083F301EFCF3F
:101FD000F0930E02E0930D0269CF4816590608F4FB
:101FE0002C017D01D3019ACFCB010E94240E7C01EC
:101FF000009749F0AE01B8010E940610C8010E9486
:10200000C00E870153CF10E000E050CFFB01DC0190
:1020100002C001900D9241505040D8F70895FB0145
:10202000DC0101900D920020E1F70895F894FFCFB4
:1020300000000F028000303030303100000000001E
:10204000E10141016E012E029F017D019101543A8F
:10205000002C483A0053656E743A20000D0A0000C7
:00000001FF
